:100000000C945A000C946C000C946C000C94A60098
:100010000C946C000C946C000C946C000C946C00B0
:100020000C946C000C946C000C946C000C946C00A0
:100030000C946C000C946C000C946C000C946C0090
:100040000C946E000C946C000C946C000C946C007E
:100050000C946C000C946C000C946C000C946C0070
:100060000C946C000C946C000C946C000C946C0060
:100070000C946C000C946C000C946C000C946C0050
:100080000C946C000C946C000C946C000C946C0040
:100090000C946C000C946C000C946C000C946C0030
:1000A0000C946C000C946C000C946C000C946C0020
:1000B0000C946C0011241FBECFEFD8E0DEBFCDBF83
:1000C00021E0A0E0B1E001C01D92A330B207E1F74A
:1000D0000E94BC000C94C8000C9400001F920F9268
:1000E0000FB60F9211248F939F93809100018F5F21
:1000F000809300011B9906C0809102018F5F80935D
:10010000020105C0809101018F5F80930101809100
:1001100000018E31A1F490910201809101019817A4
:1001200020F095B181E0892785B915BC81E08093E5
:100130006B001092020110920101109200019F9138
:100140008F910F900FBE0F901F9018951F920F92D6
:100150000FB60F9211248F931B9908C016BC1092F2
:100160006B0081E080936E0082E085BD8F910F90DF
:100170000FBE0F901F9018958DEF84B982E085B95E
:1001800081E08093680080936B0078948895FDCF20
:04019000F894FFCF11
:00000001FF
