:100000000C945A000C9477000C9477000C94D10057
:100010000C9477000C9477000C9477000C94770084
:100020000C9477000C9477000C9477000C94770074
:100030000C9477000C9498000C9489000C9479002F
:100040000C9477000C9477000C9477000C94770054
:100050000C9477000C9477000C9477000C94770044
:100060000C9477000C9477000C9477000C94770034
:100070000C9477000C9477000C9477000C94770024
:100080000C9477000C9477000C9477000C94770014
:100090000C9477000C9477000C9477000C94770004
:1000A0000C9477000C9477000C9477000C947700F4
:1000B0000C94770011241FBECFEFD8E0DEBFCDBF78
:1000C00011E0A0E0B1E0E6E0F2E002C005900D92A0
:1000D000AC30B107D9F721E0ACE0B1E001C01D922E
:1000E000A031B207E1F70E94EB000C9401010C94DF
:1000F00000001F920F920FB60F9211248F9388B5B4
:100100008D3709F02A988F910F900FBE0F901F9096
:1001100018951F920F920FB60F9211248F9388B5E6
:1001200081112A9A8F910F900FBE0F901F901895F2
:100130001F920F920FB60F9211248F939F9380916D
:100140000C018F5F80930C011B9906C080910E01FA
:100150008F5F80930E0105C080910D018F5F8093AA
:100160000D0180910C018E31A9F490910E018091C6
:100170000D01981720F095B181E0892785B910927B
:10018000810081E080936B0010920E0110920D01AE
:1001900010920C019F918F910F900FBE0F901F90A6
:1001A00018951F920F920FB60F9211248F931B99DF
:1001B0000CC0109285001092840010926B0081E0B8
:1001C00080936E0082E0809381008F910F900FBE2C
:1001D0000F901F9018958DEF84B982E085B991E05A
:1001E0009093680090936B009DE797BD9EE398BD48
:1001F00084BD83E085BD86E080936E007894889509
:06020000FDCFF894FFCFD2
:0C0206000400060C131A263241577D003C
:00000001FF
