:100000000EC01DC05FC01BC01BC019C018C017C0E8
:1000100016C015C014C013C012C011C010C01124E6
:100020001FBECFE5D2E0DEBFCDBF20E0A0E6B0E04E
:1000300001C01D92A336B207E1F757D061C0E0CFEF
:100040001F920F920FB60F9211248F939F9380915E
:1000500060008F5F80936000B39910C08091620050
:100060008F5F80936200809160008E3181F09F915C
:100070008F910F900FBE0F901F9018958091610087
:100080008F5F80936100809160008E3181F7909145
:10009000620080916100981720F098B380E1892771
:1000A00088BB10BE8BB780628BBF1092620010922B
:1000B0006100109260009F918F910F900FBE0F9082
:1000C0001F9018951F920F920FB60F9211248F93C5
:1000D000B39905C01BBE1FBC84E089BF80BF8F9150
:1000E0000F900FBE0F901F90189587EF87BB88BBAE
:1000F00080E28BBF88E085BB88BB78948895FDCF74
:04010000F894FFCFA1
:00000001FF
