:100000000EC01DC034C01BC01AC01AC018C017C013
:1000100016C015C014C013C012C011C010C01124E6
:100020001FBECFE5D2E0DEBFCDBF20E0A0E6B0E04E
:1000300001C01D92A236B207E1F732D03AC0E0CF3C
:100040001F920F920FB60F9211248F938091600030
:100050008F5F8093600088B3809160008E3109F4D7
:1000600013BE8F910F900FBE0F901F9018951F9287
:100070000F920FB60F9211248F939F9388B3909194
:10008000600080916100981304C098B381E08927D3
:1000900088BB9F918F910F900FBE0F901F90189566
:1000A0008DEF87BB80E28BBF81E085BB789488951C
:0600B000FDCFF894FFCF24
:00000001FF
