:100000000EC028C028C026C03BC024C023C022C0C8
:1000100021C020C01FC01EC01DC01CC01BC0112499
:100020001FBECFE5D2E0DEBFCDBF10E0A0E6B0E05E
:10003000E2E4F1E002C005900D92AC36B107D9F7C9
:1000400020E0ACE6B0E001C01D92A037B207E1F7B6
:1000500066D075C0D5CF1F920F920FB60F921124A4
:100060008F93B39907C01BBE1FBC89B7846089BF3B
:1000700084E080BF8F910F900FBE0F901F90189556
:100080001F920F920FB60F9211248F939F93EF93AD
:10009000FF9380916C008F5F80936C00B39912C0C6
:1000A00080916E008F5F80936E0080916C008E3126
:1000B00091F0FF91EF919F918F910F900FBE0F9054
:1000C0001F90189580916D008F5F80936D008091D7
:1000D0006C008E3171F790916E0080916D009817D1
:1000E00080F0809160008F5F80936000809160005D
:1000F0008A3091F0E0916000F0E0EF59FF4F80818D
:1001000089BD10BE8BB780628BBF10926E001092BB
:100110006D0010926C00CDCF10926000EBCF87EF96
:1001200087BB8DE789BD88E088BB90E29BBF85BB1C
:1001300081E88ABD83E083BF78948895FDCFF894E9
:02014000FFCFEF
:0C01420004000B1827384C6585B2FF0044
:00000001FF
