:100000000EC028C047C026C05AC024C023C022C08A
:1000100021C020C030C01FC01DC01CC01BC0112487
:100020001FBECFE5D2E0DEBFCDBF10E0A0E6B0E05E
:10003000E8E8F1E002C005900D92AC36B107D9F7BF
:1000400020E0ACE6B0E001C01D92A037B207E1F7B6
:1000500085D098C0D5CF1F920F920FB60F92112462
:100060008F9388B58D3709F0C4988F910F900FBE8C
:100070000F901F9018951F920F920FB60F92112498
:100080008F9388B58111C49A8F910F900FBE0F90F6
:100090001F9018951F920F920FB60F9211248F93F5
:1000A000B39907C01BBE1FBC89B7846089BF84E0B9
:1000B00080BF8F910F900FBE0F901F9018951F92C9
:1000C0000F920FB60F9211248F939F93EF93FF938C
:1000D00080916C008F5F80936C00B39912C0809107
:1000E0006E008F5F80936E0080916C008E3191F076
:1000F000FF91EF919F918F910F900FBE0F901F90E6
:10010000189580916D008F5F80936D0080916C00D9
:100110008E3171F790916E0080916D00981780F08C
:10012000809160008F5F80936000809160008A30D2
:1001300091F0E0916000F0E0EF59FF4F808188BDC1
:1001400010BE8BB780628BBF10926E0010926D0054
:1001500010926C00CDCF10926000EBCF87EF87BB81
:100160008DE789BD8EE388BD88E088BB90E29BBFA8
:1001700085BB82E08ABD83E083BF88E189BF789434
:080180008895FDCFF894FFCF34
:0C0188000400060C131A263241577D00BB
:00000001FF
