:100000000C945A000C946C000C946C000C948C00B2
:100010000C946C000C946C000C946C000C946C00B0
:100020000C946C000C946C000C946C000C946C00A0
:100030000C946C000C946C000C946C000C946C0090
:100040000C946E000C946C000C946C000C946C007E
:100050000C946C000C946C000C946C000C946C0070
:100060000C946C000C946C000C946C000C946C0060
:100070000C946C000C946C000C946C000C946C0050
:100080000C946C000C946C000C946C000C946C0040
:100090000C946C000C946C000C946C000C946C0030
:1000A0000C946C000C946C000C946C000C946C0020
:1000B0000C946C0011241FBECFEFD8E0DEBFCDBF83
:1000C00021E0A0E0B1E001C01D92A230B207E1F74B
:1000D0000E94AE000C94B8000C9400001F920F9286
:1000E0000FB60F9211248F93809100018F5F809340
:1000F000000185B1882329F0809101018F5F8093F1
:100100000101809100018E3109F415BC8F910F908F
:100110000FBE0F901F9018951F920F920FB60F925F
:1001200011248F939F9385B1882339F016BC81E009
:1001300080936E0085E085BD0AC09091000180919A
:100140000101981304C095B181E0892785B99F9179
:100150008F910F900FBE0F901F9018958DEF84B95F
:1001600081E08093680080936B0078948895FDCF40
:04017000F894FFCF31
:00000001FF
