:1000000009C021C021C01FC01EC01DC01CC01BC014
:100010001AC019C011241FBECFE9CDBF10E0A0E661
:10002000B0E0E0E1F1E002C005900D92AC36B1071E
:10003000D9F720E0ACE6B0E001C01D92A037B207CE
:10004000E1F753D063C0DCCF1F920F920FB60F922F
:1000500011248F939F93EF93FF93B39B34C08091B0
:100060006C008E31A0F48EE100008150E9F78091A0
:100070006C008F5F80936C00B39B2EC080916E00EC
:100080008F5F80936E0080916C008E3160F3909151
:100090006E0080916D00891780F4809160008F5F01
:1000A00080936000809160008A30E1F0E091600010
:1000B000F0E0EF59FF4F808189BD10926E001092E1
:1000C0006D0010926C00FF91EF919F918F910F90B6
:1000D0000FBE0F901F90189580916D008F5F8093D9
:1000E0006D00BDCF10926000E1CF87EF87BB85E444
:1000F00086BF81E289BD98E098BB20E22BBF95BB0B
:100100008FBD8AE083BF78948895FDCFF894FFCFA8
:0C011000040003070B0F151C24304500F1
:00000001FF
